:100000000C9472000C9493000C9493000C94930045
:100010000C9493000C9493000C9493000C94930014
:100020000C9493000C9493000C9493000C94930004
:100030000C9493000C9493000C9493000C949300F4
:100040000C9493000C9493000C9493000C949300E4
:100050000C9493000C9493000C9493000C94520114
:100060000C9493000C94CB010C9493000C9493008B
:100070000C9493000C9493000C9493000C949300B4
:100080000C9493000C9493000C9493000C949300A4
:100090000C9493000C9493000C9493000C94930094
:1000A0000C9493000C9493000C9493000C94930084
:1000B0000C9493000C9493000C9493000C94930074
:1000C0000C9493000C9493000C9493000C94930064
:1000D0000C9493000C9493000C9493000C94930054
:1000E0000C94930011241FBECFEFD1E2DEBFCDBF31
:1000F00000E00CBF12E0A0E0B2E0E6EDF3E000E0CB
:100100000BBF02C007900D92AA32B107D9F712E0D7
:10011000AAE2B2E001C01D92A333B107E1F70E9449
:1001200095000C94E9010C94000080E88093610034
:10013000109261000E94B2000E9449010E94AE012B
:10014000789482E58093300206C00E94BB018091C2
:1001500030020E94C401809130028135B1F780E005
:1001600090E008958FEF84B985B981B982B9089577
:100170008530910520F085B180958F6785B9089508
:100180009C01CB016AE070E00E94D50161E021157D
:10019000310509F060E0E1E0009709F0E0E0F1E00E
:1001A0008530910509F0F0E04F2F462350E06E2393
:1001B00070E0462B572B4115510511F08EEF85B994
:1001C00041E02130310509F040E0F4238F2F90E029
:1001D0004E23242F30E0822B932B009711F08FEFCA
:1001E00085B90895CF93DF93C0E0D2E003C0899131
:1001F0000E94C40182E0C932D807C9F7DF91CF91CC
:1002000008958FEF85B9F89485B9809364000895B7
:100210008135E1F182351CF48434D1F525C0823575
:1002200019F08335A9F50FC0609131027091320247
:1002300080912C0290912D020E94B80010922B0206
:1002400010922A02089560913102709132028091D9
:100250002C0290912D020E94C00081E090E09093CA
:100260002B0280932A02089580912A0290912B02FA
:10027000009731F083E5809330020E94C401089515
:100280000E94F20082E58093300208950E940101ED
:10029000089583E886BD83E085BD81E080936E008C
:1002A000789408951F920F920FB60F920BB60F928B
:1002B00011242F933F934F935F936F937F938F936B
:1002C0009F93AF93BF93EF93FF9383E886BD809195
:1002D0002E0290912F02019690932F0280932E026E
:1002E0008436910521F510922F0210922E028091F2
:1002F0002C0290912D02019690932D0280932C0256
:100300008A309105A1F410922D0210922C02809156
:100310003102909132020196909332028093310221
:100320008C33910521F410923202109231028091A7
:1003300030020E940801FF91EF91BF91AF919F9110
:100340008F917F916F915F914F913F912F910F907E
:100350000BBE0F900FBE0F901F90189583E390E097
:100360009093C5008093C40088E98093C10086E023
:100370008093C20008958091C00087FFFCCF8091D8
:10038000C6008093300208959091C00095FFFCCF85
:100390008093C60008951F920F920FB60F921124FA
:1003A0000F900FBE0F901F901895AA1BBB1B51E119
:1003B00007C0AA1FBB1FA617B70710F0A61BB70BD5
:1003C000881F991F5A95A9F780959095BC01CD017A
:0603D0000895F894FFCF30
:1003D600476F6F642063686F6963652E20596F7578
:1003E6002063686F736520446973706C6179204D72
:0A03F6006573736167652E200A002D
:00000001FF
